{
  "_format": "hh-sol-artifact-1",
  "contractName": "mintableERC20",
  "sourceName": "contracts/mintableERC20.sol",
  "abi": [
    {
      "inputs": [
        {
          "internalType": "string",
          "name": "_name",
          "type": "string"
        },
        {
          "internalType": "string",
          "name": "_symbol",
          "type": "string"
        }
      ],
      "stateMutability": "nonpayable",
      "type": "constructor"
    },
    {
      "anonymous": false,
      "inputs": [
        {
          "indexed": true,
          "internalType": "address",
          "name": "owner",
          "type": "address"
        },
        {
          "indexed": true,
          "internalType": "address",
          "name": "spender",
          "type": "address"
        },
        {
          "indexed": false,
          "internalType": "uint256",
          "name": "value",
          "type": "uint256"
        }
      ],
      "name": "Approval",
      "type": "event"
    },
    {
      "anonymous": false,
      "inputs": [
        {
          "indexed": true,
          "internalType": "address",
          "name": "from",
          "type": "address"
        },
        {
          "indexed": true,
          "internalType": "address",
          "name": "to",
          "type": "address"
        },
        {
          "indexed": false,
          "internalType": "uint256",
          "name": "value",
          "type": "uint256"
        }
      ],
      "name": "Transfer",
      "type": "event"
    },
    {
      "inputs": [
        {
          "internalType": "address",
          "name": "owner",
          "type": "address"
        },
        {
          "internalType": "address",
          "name": "spender",
          "type": "address"
        }
      ],
      "name": "allowance",
      "outputs": [
        {
          "internalType": "uint256",
          "name": "",
          "type": "uint256"
        }
      ],
      "stateMutability": "view",
      "type": "function"
    },
    {
      "inputs": [
        {
          "internalType": "address",
          "name": "spender",
          "type": "address"
        },
        {
          "internalType": "uint256",
          "name": "amount",
          "type": "uint256"
        }
      ],
      "name": "approve",
      "outputs": [
        {
          "internalType": "bool",
          "name": "",
          "type": "bool"
        }
      ],
      "stateMutability": "nonpayable",
      "type": "function"
    },
    {
      "inputs": [
        {
          "internalType": "address",
          "name": "account",
          "type": "address"
        }
      ],
      "name": "balanceOf",
      "outputs": [
        {
          "internalType": "uint256",
          "name": "",
          "type": "uint256"
        }
      ],
      "stateMutability": "view",
      "type": "function"
    },
    {
      "inputs": [
        {
          "internalType": "address",
          "name": "_address",
          "type": "address"
        }
      ],
      "name": "canMint",
      "outputs": [
        {
          "internalType": "bool",
          "name": "",
          "type": "bool"
        }
      ],
      "stateMutability": "view",
      "type": "function"
    },
    {
      "inputs": [],
      "name": "decimals",
      "outputs": [
        {
          "internalType": "uint8",
          "name": "",
          "type": "uint8"
        }
      ],
      "stateMutability": "view",
      "type": "function"
    },
    {
      "inputs": [
        {
          "internalType": "address",
          "name": "spender",
          "type": "address"
        },
        {
          "internalType": "uint256",
          "name": "subtractedValue",
          "type": "uint256"
        }
      ],
      "name": "decreaseAllowance",
      "outputs": [
        {
          "internalType": "bool",
          "name": "",
          "type": "bool"
        }
      ],
      "stateMutability": "nonpayable",
      "type": "function"
    },
    {
      "inputs": [
        {
          "internalType": "address",
          "name": "spender",
          "type": "address"
        },
        {
          "internalType": "uint256",
          "name": "addedValue",
          "type": "uint256"
        }
      ],
      "name": "increaseAllowance",
      "outputs": [
        {
          "internalType": "bool",
          "name": "",
          "type": "bool"
        }
      ],
      "stateMutability": "nonpayable",
      "type": "function"
    },
    {
      "inputs": [
        {
          "internalType": "address",
          "name": "",
          "type": "address"
        }
      ],
      "name": "lastMintTime",
      "outputs": [
        {
          "internalType": "uint256",
          "name": "",
          "type": "uint256"
        }
      ],
      "stateMutability": "view",
      "type": "function"
    },
    {
      "inputs": [],
      "name": "mintToken",
      "outputs": [],
      "stateMutability": "nonpayable",
      "type": "function"
    },
    {
      "inputs": [],
      "name": "name",
      "outputs": [
        {
          "internalType": "string",
          "name": "",
          "type": "string"
        }
      ],
      "stateMutability": "view",
      "type": "function"
    },
    {
      "inputs": [],
      "name": "owner",
      "outputs": [
        {
          "internalType": "address",
          "name": "",
          "type": "address"
        }
      ],
      "stateMutability": "view",
      "type": "function"
    },
    {
      "inputs": [
        {
          "internalType": "uint256",
          "name": "_newInterval",
          "type": "uint256"
        }
      ],
      "name": "setInterval",
      "outputs": [],
      "stateMutability": "nonpayable",
      "type": "function"
    },
    {
      "inputs": [],
      "name": "symbol",
      "outputs": [
        {
          "internalType": "string",
          "name": "",
          "type": "string"
        }
      ],
      "stateMutability": "view",
      "type": "function"
    },
    {
      "inputs": [],
      "name": "totalSupply",
      "outputs": [
        {
          "internalType": "uint256",
          "name": "",
          "type": "uint256"
        }
      ],
      "stateMutability": "view",
      "type": "function"
    },
    {
      "inputs": [
        {
          "internalType": "address",
          "name": "recipient",
          "type": "address"
        },
        {
          "internalType": "uint256",
          "name": "amount",
          "type": "uint256"
        }
      ],
      "name": "transfer",
      "outputs": [
        {
          "internalType": "bool",
          "name": "",
          "type": "bool"
        }
      ],
      "stateMutability": "nonpayable",
      "type": "function"
    },
    {
      "inputs": [
        {
          "internalType": "address",
          "name": "sender",
          "type": "address"
        },
        {
          "internalType": "address",
          "name": "recipient",
          "type": "address"
        },
        {
          "internalType": "uint256",
          "name": "amount",
          "type": "uint256"
        }
      ],
      "name": "transferFrom",
      "outputs": [
        {
          "internalType": "bool",
          "name": "",
          "type": "bool"
        }
      ],
      "stateMutability": "nonpayable",
      "type": "function"
    }
  ],
  "bytecode": "0x6080604052600880546001600160a01b03199081167312cb274aad8251c875c0bf6872b67d9983e53fdd17909155600980548216733b939fead1557c741ff06492fd0127bd287a421e179055600a805490911673dac66edab6e4fb1f6388d082f4689c2ed19245541790553480156200007757600080fd5b50604051620011df380380620011df8339810160408190526200009a916200037c565b815182908290620000b39060039060208501906200022b565b508051620000c99060049060208401906200022b565b5050600854620000ee91506001600160a01b031669152d02c7e14af680000062000152565b60095462000110906001600160a01b031669152d02c7e14af680000062000152565b600a5462000132906001600160a01b031669152d02c7e14af680000062000152565b5050600780546001600160a01b03191633179055610e106006556200049b565b6001600160a01b038216620001845760405162461bcd60e51b81526004016200017b90620003e3565b60405180910390fd5b620001926000838362000226565b8060026000828254620001a6919062000423565b90915550506001600160a01b03821660009081526020819052604081208054839290620001d590849062000423565b90915550506040516001600160a01b038316906000907fddf252ad1be2c89b69c2b068fc378daa952ba7f163c4a11628f55a4df523b3ef906200021a9085906200041a565b60405180910390a35050565b505050565b828054620002399062000448565b90600052602060002090601f0160209004810192826200025d5760008555620002a8565b82601f106200027857805160ff1916838001178555620002a8565b82800160010185558215620002a8579182015b82811115620002a85782518255916020019190600101906200028b565b50620002b6929150620002ba565b5090565b5b80821115620002b65760008155600101620002bb565b600082601f830112620002e2578081fd5b81516001600160401b0380821115620002ff57620002ff62000485565b6040516020601f8401601f191682018101838111838210171562000327576200032762000485565b60405283825285840181018710156200033e578485fd5b8492505b8383101562000361578583018101518284018201529182019162000342565b838311156200037257848185840101525b5095945050505050565b600080604083850312156200038f578182fd5b82516001600160401b0380821115620003a6578384fd5b620003b486838701620002d1565b93506020850151915080821115620003ca578283fd5b50620003d985828601620002d1565b9150509250929050565b6020808252601f908201527f45524332303a206d696e7420746f20746865207a65726f206164647265737300604082015260600190565b90815260200190565b600082198211156200044357634e487b7160e01b81526011600452602481fd5b500190565b6002810460018216806200045d57607f821691505b602082108114156200047f57634e487b7160e01b600052602260045260246000fd5b50919050565b634e487b7160e01b600052604160045260246000fd5b610d3480620004ab6000396000f3fe608060405234801561001057600080fd5b50600436106101005760003560e01c80636aa71d1811610097578063a457c2d711610066578063a457c2d7146101f3578063a9059cbb14610206578063c2ba474414610219578063dd62ed3e1461022c57610100565b80636aa71d18146101b057806370a08231146101c35780638da5cb5b146101d657806395d89b41146101eb57610100565b806322a90082116100d357806322a900821461016257806323b872dd14610175578063313ce56714610188578063395093511461019d57610100565b806306fdde0314610105578063095ea7b31461012357806318160ddd146101435780632004ffd914610158575b600080fd5b61010d61023f565b60405161011a9190610993565b60405180910390f35b610136610131366004610933565b6102d1565b60405161011a9190610988565b61014b6102ee565b60405161011a9190610c67565b6101606102f4565b005b61016061017036600461095c565b610377565b6101366101833660046108f8565b6103a6565b61019061043d565b60405161011a9190610c70565b6101366101ab366004610933565b610442565b61014b6101be3660046108a5565b610491565b61014b6101d13660046108a5565b6104a3565b6101de6104c2565b60405161011a9190610974565b61010d6104d1565b610136610201366004610933565b6104e0565b610136610214366004610933565b61055b565b6101366102273660046108a5565b61056f565b61014b61023a3660046108c6565b6105be565b60606003805461024e90610cad565b80601f016020809104026020016040519081016040528092919081815260200182805461027a90610cad565b80156102c75780601f1061029c576101008083540402835291602001916102c7565b820191906000526020600020905b8154815290600101906020018083116102aa57829003601f168201915b5050505050905090565b60006102e56102de6105e9565b84846105ed565b50600192915050565b60025490565b33600090815260056020526040902054158061032b5750600654336000908152600560205260409020546103289190610c7e565b42115b6103505760405162461bcd60e51b815260040161034790610a29565b60405180910390fd5b6103633368056bc75e2d631000006106a1565b336000908152600560205260409020429055565b6007546001600160a01b031633146103a15760405162461bcd60e51b815260040161034790610b84565b600655565b60006103b3848484610761565b6001600160a01b0384166000908152600160205260408120816103d46105e9565b6001600160a01b03166001600160a01b03168152602001908152602001600020549050828110156104175760405162461bcd60e51b815260040161034790610af7565b610432856104236105e9565b61042d8685610c96565b6105ed565b506001949350505050565b601290565b60006102e561044f6105e9565b84846001600061045d6105e9565b6001600160a01b03908116825260208083019390935260409182016000908120918b168152925290205461042d9190610c7e565b60056020526000908152604090205481565b6001600160a01b0381166000908152602081905260409020545b919050565b6007546001600160a01b031681565b60606004805461024e90610cad565b600080600160006104ef6105e9565b6001600160a01b039081168252602080830193909352604091820160009081209188168152925290205490508281101561053b5760405162461bcd60e51b815260040161034790610beb565b6105516105466105e9565b8561042d8685610c96565b5060019392505050565b60006102e56105686105e9565b8484610761565b6001600160a01b03811660009081526005602052604081205415806105b857506006546001600160a01b0383166000908152600560205260409020546105b59190610c7e565b42115b92915050565b6001600160a01b03918216600090815260016020908152604080832093909416825291909152205490565b3390565b6001600160a01b0383166106135760405162461bcd60e51b815260040161034790610ba7565b6001600160a01b0382166106395760405162461bcd60e51b815260040161034790610a6f565b6001600160a01b0380841660008181526001602090815260408083209487168084529490915290819020849055517f8c5be1e5ebec7d5bd14f71427d1e84f3dd0314c0f7b2291e5b200ac8c7c3b92590610694908590610c67565b60405180910390a3505050565b6001600160a01b0382166106c75760405162461bcd60e51b815260040161034790610c30565b6106d360008383610889565b80600260008282546106e59190610c7e565b90915550506001600160a01b03821660009081526020819052604081208054839290610712908490610c7e565b90915550506040516001600160a01b038316906000907fddf252ad1be2c89b69c2b068fc378daa952ba7f163c4a11628f55a4df523b3ef90610755908590610c67565b60405180910390a35050565b6001600160a01b0383166107875760405162461bcd60e51b815260040161034790610b3f565b6001600160a01b0382166107ad5760405162461bcd60e51b8152600401610347906109e6565b6107b8838383610889565b6001600160a01b038316600090815260208190526040902054818110156107f15760405162461bcd60e51b815260040161034790610ab1565b6107fb8282610c96565b6001600160a01b038086166000908152602081905260408082209390935590851681529081208054849290610831908490610c7e565b92505081905550826001600160a01b0316846001600160a01b03167fddf252ad1be2c89b69c2b068fc378daa952ba7f163c4a11628f55a4df523b3ef8460405161087b9190610c67565b60405180910390a350505050565b505050565b80356001600160a01b03811681146104bd57600080fd5b6000602082840312156108b6578081fd5b6108bf8261088e565b9392505050565b600080604083850312156108d8578081fd5b6108e18361088e565b91506108ef6020840161088e565b90509250929050565b60008060006060848603121561090c578081fd5b6109158461088e565b92506109236020850161088e565b9150604084013590509250925092565b60008060408385031215610945578182fd5b61094e8361088e565b946020939093013593505050565b60006020828403121561096d578081fd5b5035919050565b6001600160a01b0391909116815260200190565b901515815260200190565b6000602080835283518082850152825b818110156109bf578581018301518582016040015282016109a3565b818111156109d05783604083870101525b50601f01601f1916929092016040019392505050565b60208082526023908201527f45524332303a207472616e7366657220746f20746865207a65726f206164647260408201526265737360e81b606082015260800190565b60208082526026908201527f596f75206e65656420746f207761697420616e20686f7572206265747765656e604082015265206d696e747360d01b606082015260800190565b60208082526022908201527f45524332303a20617070726f766520746f20746865207a65726f206164647265604082015261737360f01b606082015260800190565b60208082526026908201527f45524332303a207472616e7366657220616d6f756e7420657863656564732062604082015265616c616e636560d01b606082015260800190565b60208082526028908201527f45524332303a207472616e7366657220616d6f756e74206578636565647320616040820152676c6c6f77616e636560c01b606082015260800190565b60208082526025908201527f45524332303a207472616e736665722066726f6d20746865207a65726f206164604082015264647265737360d81b606082015260800190565b6020808252600990820152682737ba1037bbb732b960b91b604082015260600190565b60208082526024908201527f45524332303a20617070726f76652066726f6d20746865207a65726f206164646040820152637265737360e01b606082015260800190565b60208082526025908201527f45524332303a2064656372656173656420616c6c6f77616e63652062656c6f77604082015264207a65726f60d81b606082015260800190565b6020808252601f908201527f45524332303a206d696e7420746f20746865207a65726f206164647265737300604082015260600190565b90815260200190565b60ff91909116815260200190565b60008219821115610c9157610c91610ce8565b500190565b600082821015610ca857610ca8610ce8565b500390565b600281046001821680610cc157607f821691505b60208210811415610ce257634e487b7160e01b600052602260045260246000fd5b50919050565b634e487b7160e01b600052601160045260246000fdfea26469706673582212206b3d813ab99f1635f5f628df503678ad70812c22fc1a1b2713bfd37324f045ae64736f6c63430008000033",
  "linkReferences": {},
  "deployedLinkReferences": {}
}